{
  "_format": "hh-sol-artifact-1",
  "contractName": "FRouter",
  "sourceName": "contracts/FRouter.sol",
  "abi": [
    {
      "inputs": [],
      "stateMutability": "nonpayable",
      "type": "constructor"
    },
    {
      "inputs": [],
      "name": "AccessControlBadConfirmation",
      "type": "error"
    },
    {
      "inputs": [
        {
          "internalType": "address",
          "name": "account",
          "type": "address"
        },
        {
          "internalType": "bytes32",
          "name": "neededRole",
          "type": "bytes32"
        }
      ],
      "name": "AccessControlUnauthorizedAccount",
      "type": "error"
    },
    {
      "inputs": [],
      "name": "InvalidInitialization",
      "type": "error"
    },
    {
      "inputs": [],
      "name": "NotInitializing",
      "type": "error"
    },
    {
      "inputs": [],
      "name": "ReentrancyGuardReentrantCall",
      "type": "error"
    },
    {
      "inputs": [
        {
          "internalType": "address",
          "name": "token",
          "type": "address"
        }
      ],
      "name": "SafeERC20FailedOperation",
      "type": "error"
    },
    {
      "anonymous": false,
      "inputs": [
        {
          "indexed": false,
          "internalType": "uint64",
          "name": "version",
          "type": "uint64"
        }
      ],
      "name": "Initialized",
      "type": "event"
    },
    {
      "anonymous": false,
      "inputs": [
        {
          "indexed": true,
          "internalType": "bytes32",
          "name": "role",
          "type": "bytes32"
        },
        {
          "indexed": true,
          "internalType": "bytes32",
          "name": "previousAdminRole",
          "type": "bytes32"
        },
        {
          "indexed": true,
          "internalType": "bytes32",
          "name": "newAdminRole",
          "type": "bytes32"
        }
      ],
      "name": "RoleAdminChanged",
      "type": "event"
    },
    {
      "anonymous": false,
      "inputs": [
        {
          "indexed": true,
          "internalType": "bytes32",
          "name": "role",
          "type": "bytes32"
        },
        {
          "indexed": true,
          "internalType": "address",
          "name": "account",
          "type": "address"
        },
        {
          "indexed": true,
          "internalType": "address",
          "name": "sender",
          "type": "address"
        }
      ],
      "name": "RoleGranted",
      "type": "event"
    },
    {
      "anonymous": false,
      "inputs": [
        {
          "indexed": true,
          "internalType": "bytes32",
          "name": "role",
          "type": "bytes32"
        },
        {
          "indexed": true,
          "internalType": "address",
          "name": "account",
          "type": "address"
        },
        {
          "indexed": true,
          "internalType": "address",
          "name": "sender",
          "type": "address"
        }
      ],
      "name": "RoleRevoked",
      "type": "event"
    },
    {
      "inputs": [],
      "name": "ADMIN_ROLE",
      "outputs": [
        {
          "internalType": "bytes32",
          "name": "",
          "type": "bytes32"
        }
      ],
      "stateMutability": "view",
      "type": "function"
    },
    {
      "inputs": [],
      "name": "DEFAULT_ADMIN_ROLE",
      "outputs": [
        {
          "internalType": "bytes32",
          "name": "",
          "type": "bytes32"
        }
      ],
      "stateMutability": "view",
      "type": "function"
    },
    {
      "inputs": [],
      "name": "EXECUTOR_ROLE",
      "outputs": [
        {
          "internalType": "bytes32",
          "name": "",
          "type": "bytes32"
        }
      ],
      "stateMutability": "view",
      "type": "function"
    },
    {
      "inputs": [
        {
          "internalType": "address",
          "name": "token_",
          "type": "address"
        },
        {
          "internalType": "address",
          "name": "assetToken",
          "type": "address"
        },
        {
          "internalType": "uint256",
          "name": "amountToken_",
          "type": "uint256"
        },
        {
          "internalType": "uint256",
          "name": "amountAsset_",
          "type": "uint256"
        }
      ],
      "name": "addInitialLiquidity",
      "outputs": [
        {
          "internalType": "uint256",
          "name": "",
          "type": "uint256"
        },
        {
          "internalType": "uint256",
          "name": "",
          "type": "uint256"
        }
      ],
      "stateMutability": "nonpayable",
      "type": "function"
    },
    {
      "inputs": [
        {
          "internalType": "address",
          "name": "pair",
          "type": "address"
        },
        {
          "internalType": "address",
          "name": "asset",
          "type": "address"
        },
        {
          "internalType": "address",
          "name": "spender",
          "type": "address"
        },
        {
          "internalType": "uint256",
          "name": "amount",
          "type": "uint256"
        }
      ],
      "name": "approval",
      "outputs": [],
      "stateMutability": "nonpayable",
      "type": "function"
    },
    {
      "inputs": [
        {
          "internalType": "uint256",
          "name": "amountIn",
          "type": "uint256"
        },
        {
          "internalType": "address",
          "name": "tokenAddress",
          "type": "address"
        },
        {
          "internalType": "address",
          "name": "assetToken",
          "type": "address"
        },
        {
          "internalType": "address",
          "name": "to",
          "type": "address"
        }
      ],
      "name": "buy",
      "outputs": [
        {
          "internalType": "uint256",
          "name": "",
          "type": "uint256"
        },
        {
          "internalType": "uint256",
          "name": "",
          "type": "uint256"
        }
      ],
      "stateMutability": "nonpayable",
      "type": "function"
    },
    {
      "inputs": [],
      "name": "factory",
      "outputs": [
        {
          "internalType": "contract FFactory",
          "name": "",
          "type": "address"
        }
      ],
      "stateMutability": "view",
      "type": "function"
    },
    {
      "inputs": [
        {
          "internalType": "address",
          "name": "inputToken",
          "type": "address"
        },
        {
          "internalType": "address",
          "name": "outputToken",
          "type": "address"
        },
        {
          "internalType": "uint256",
          "name": "amountIn",
          "type": "uint256"
        }
      ],
      "name": "getAmountOut",
      "outputs": [
        {
          "internalType": "uint256",
          "name": "amountOut",
          "type": "uint256"
        }
      ],
      "stateMutability": "view",
      "type": "function"
    },
    {
      "inputs": [
        {
          "internalType": "bytes32",
          "name": "role",
          "type": "bytes32"
        }
      ],
      "name": "getRoleAdmin",
      "outputs": [
        {
          "internalType": "bytes32",
          "name": "",
          "type": "bytes32"
        }
      ],
      "stateMutability": "view",
      "type": "function"
    },
    {
      "inputs": [
        {
          "internalType": "address",
          "name": "tokenAddress",
          "type": "address"
        },
        {
          "internalType": "address",
          "name": "assetToken",
          "type": "address"
        }
      ],
      "name": "graduatePool",
      "outputs": [
        {
          "internalType": "uint256",
          "name": "",
          "type": "uint256"
        },
        {
          "internalType": "uint256",
          "name": "",
          "type": "uint256"
        }
      ],
      "stateMutability": "nonpayable",
      "type": "function"
    },
    {
      "inputs": [
        {
          "internalType": "bytes32",
          "name": "role",
          "type": "bytes32"
        },
        {
          "internalType": "address",
          "name": "account",
          "type": "address"
        }
      ],
      "name": "grantRole",
      "outputs": [],
      "stateMutability": "nonpayable",
      "type": "function"
    },
    {
      "inputs": [
        {
          "internalType": "bytes32",
          "name": "role",
          "type": "bytes32"
        },
        {
          "internalType": "address",
          "name": "account",
          "type": "address"
        }
      ],
      "name": "hasRole",
      "outputs": [
        {
          "internalType": "bool",
          "name": "",
          "type": "bool"
        }
      ],
      "stateMutability": "view",
      "type": "function"
    },
    {
      "inputs": [
        {
          "internalType": "address",
          "name": "factory_",
          "type": "address"
        }
      ],
      "name": "initialize",
      "outputs": [],
      "stateMutability": "nonpayable",
      "type": "function"
    },
    {
      "inputs": [
        {
          "internalType": "bytes32",
          "name": "role",
          "type": "bytes32"
        },
        {
          "internalType": "address",
          "name": "callerConfirmation",
          "type": "address"
        }
      ],
      "name": "renounceRole",
      "outputs": [],
      "stateMutability": "nonpayable",
      "type": "function"
    },
    {
      "inputs": [
        {
          "internalType": "bytes32",
          "name": "role",
          "type": "bytes32"
        },
        {
          "internalType": "address",
          "name": "account",
          "type": "address"
        }
      ],
      "name": "revokeRole",
      "outputs": [],
      "stateMutability": "nonpayable",
      "type": "function"
    },
    {
      "inputs": [
        {
          "internalType": "uint256",
          "name": "amountIn",
          "type": "uint256"
        },
        {
          "internalType": "address",
          "name": "tokenAddress",
          "type": "address"
        },
        {
          "internalType": "address",
          "name": "assetToken",
          "type": "address"
        },
        {
          "internalType": "address",
          "name": "to",
          "type": "address"
        }
      ],
      "name": "sell",
      "outputs": [
        {
          "internalType": "uint256",
          "name": "",
          "type": "uint256"
        },
        {
          "internalType": "uint256",
          "name": "",
          "type": "uint256"
        },
        {
          "internalType": "uint256",
          "name": "",
          "type": "uint256"
        }
      ],
      "stateMutability": "nonpayable",
      "type": "function"
    },
    {
      "inputs": [
        {
          "internalType": "bytes4",
          "name": "interfaceId",
          "type": "bytes4"
        }
      ],
      "name": "supportsInterface",
      "outputs": [
        {
          "internalType": "bool",
          "name": "",
          "type": "bool"
        }
      ],
      "stateMutability": "view",
      "type": "function"
    }
  ],
  "bytecode": "0x6080806040523460d2577ff0c57e16840df040f15088dc2f81fe391c3923bec73e23a9662efc9c229c6a005460ff8160401c1660c1576002600160401b03196001600160401b03821601605c575b60405161181690816100d88239f35b6001600160401b0319166001600160401b039081177ff0c57e16840df040f15088dc2f81fe391c3923bec73e23a9662efc9c229c6a005581527fc7f505b2f371ae2175ee4913f4499e1f2633a7b5936321eed1cdaeb6115181d290602090a13880604d565b63f92ee8a960e01b60005260046000fd5b600080fdfe608080604052600436101561001357600080fd5b600090813560e01c90816301ffc9a7146110675750806307bd02651461102c578063248a9ca31461100d5780632530088314610ebf5780632f2ff15d14610e8d57806336568abe14610e485780634aa0665214610e1057806375b238fc14610dd55780637c9f83b714610adb57806391d1485414610a82578063a217fddf14610a66578063ab3c475a1461097f578063acf7f113146105fb578063bfff61b2146102d4578063c45a0155146102ad578063c4d66de8146101195763d547741f146100dc57600080fd5b34610116576040366003190112610116576101126004356100fb6110d2565b9061010d61010882611136565b611437565b611676565b5080f35b80fd5b5034610116576020366003190112610116576101336110bc565b6000805160206117c1833981519152549060ff8260401c16159167ffffffffffffffff8116801590816102a5575b600114908161029b575b159081610292575b506102835767ffffffffffffffff1981166001176000805160206117c18339815191525582610256575b506101a6611752565b6101ae611752565b60016000805160206117a1833981519152556101c8611752565b6101d13361151b565b506001600160a01b03166101e6811515611157565b82546001600160a01b0319161782556101fc5780f35b68ff0000000000000000196000805160206117c183398151915254166000805160206117c1833981519152557fc7f505b2f371ae2175ee4913f4499e1f2633a7b5936321eed1cdaeb6115181d2602060405160018152a180f35b68ffffffffffffffffff191668010000000000000001176000805160206117c1833981519152553861019d565b63f92ee8a960e01b8452600484fd5b90501538610173565b303b15915061016b565b849150610161565b5034610116578060031936011261011657546040516001600160a01b039091168152602090f35b5034610116576102e3366110e8565b6102ef939192936113c5565b6102f7611716565b61030b6001600160a01b0385161515611157565b61031f6001600160a01b0382161515611157565b81156105b657845460405163e6a4390560e01b81526001600160a01b03868116600483015285811660248301528794919216602083604481845afa9283156105ab57859361058a575b50604051634f7041a560e01b8152602081600481855afa90811561054257869161054d575b506020606461039e8560049461138f565b049260405192838092630e2ad37b60e41b82525afa908115610542576103fa9383918893610507575b506103dd916103d5916113b8565b809989611212565b966001600160a01b03166103f389863384611481565b3390611481565b6001600160a01b031690813b15610503576040516302ccb1b360e41b81526001600160a01b0391909116600482015260248101849052828160448183865af19081156104f85783916104df575b5050602090608460405180948193635673b02d60e01b83528160048401528760248401528860448401528160648401525af180156104d457604094506104a7575b5060016000805160206117a18339815191525582519182526020820152f35b6104c89060203d6020116104cd575b6104c081836111a3565b8101906111fa565b610488565b503d6104b6565b6040513d86823e3d90fd5b816104e9916111a3565b6104f4578138610447565b5080fd5b6040513d85823e3d90fd5b8280fd5b6103d5919350916105326103dd9360203d60201161053b575b61052a81836111a3565b8101906111db565b939150916103c7565b503d610520565b6040513d88823e3d90fd5b9550506020853d602011610582575b81610569602093836111a3565b8101031261057d579351879490602061038d565b600080fd5b3d915061055c565b6105a491935060203d60201161053b5761052a81836111a3565b9138610368565b6040513d87823e3d90fd5b60405162461bcd60e51b815260206004820152601f60248201527f616d6f756e74496e206d7573742062652067726561746572207468616e2030006044820152606490fd5b503461011657604036600319011261011657610681602061061a6110bc565b6106226110d2565b9061062b6113c5565b610633611716565b6106476001600160a01b0382161515611157565b845460405163e6a4390560e01b81526001600160a01b03928316600482015292821660248401529193849290911690829081906044820190565b03915afa908115610974578291610955575b5060405163c66f245560e01b81526001600160a01b039190911690602081600481855afa9081156104f8578391610923575b506040516316d3df1560e31b8152602081600481865afa9081156104d45784916108f1575b5060405163b07925f160e01b8152602081600481875afa9081156105ab5785916108bf575b50801561087b57610720838361138f565b049283821061081e576107348486936113b8565b90803b1561050357604051635c921eb960e01b815233600482015260248101859052838160448183865af19081156104d4578491610809575b5050803b15610503576040516302ccb1b360e41b815233600482015260248101869052838160448183865af19081156104d45784916107f4575b505060246020926040519485938492633da3f60d60e11b845260048401525af180156104d457604094506104a7575060016000805160206117a18339815191525582519182526020820152f35b816107fe916111a3565b6105035782386107a7565b81610813916111a3565b61050357823861076d565b60405162461bcd60e51b815260206004820152602f60248201527f4e6f7420656e6f7567682062616c616e636520746f20737570706f727420746160448201526e1c99d95d081dda5d1a191c985dd85b608a1b6064820152608490fd5b606460405162461bcd60e51b815260206004820152602060248201527f526573657276652073686f756c642062652067726561746572207468616e20306044820152fd5b90506020813d6020116108e9575b816108da602093836111a3565b8101031261057d57513861070f565b3d91506108cd565b90506020813d60201161091b575b8161090c602093836111a3565b8101031261057d5751386106ea565b3d91506108ff565b90506020813d60201161094d575b8161093e602093836111a3565b8101031261057d5751386106c5565b3d9150610931565b61096e915060203d60201161053b5761052a81836111a3565b38610693565b6040513d84823e3d90fd5b5034610116576080366003190112610116576109996110bc565b6109a16110d2565b906044356001600160a01b03811691828203610a6257610a15936109d86020946109c96113c5565b6109d1611716565b1515611157565b604051632e2952f960e11b81526001600160a01b039384166004820152921660248301526064803560448401529193849283918791839190820190565b03926001600160a01b03165af1801561097457610a43575b5060016000805160206117a18339815191525580f35b610a5b9060203d6020116104cd576104c081836111a3565b5038610a2d565b8480fd5b5034610116578060031936011261011657602090604051908152f35b5034610116576040366003190112610116576040610a9e6110d2565b916004358152600080516020611781833981519152602052209060018060a01b0316600052602052602060ff604060002054166040519015158152f35b503461011657610aea366110e8565b91610af3611716565b610afb6113c5565b6001600160a01b03811691610b11831515611157565b610b256001600160a01b0385161515611157565b855460405163e6a4390560e01b81526001600160a01b0384811660048301528381166024830152909160209183916044918391165afa918215610da757610b8f928780938a92610db2575b506001600160a01b038216959192610b8792611212565b943390611481565b845460405163cc1776d360e01b81526001600160a01b039091169390602081600481885afa8015610da75784918891610d6c575b50610bd260049260649261138f565b04916020610be084876113b8565b9660405193848092630e2ad37b60e41b82525afa918215610d40578892610d4b575b5087843b1561011657604051635c921eb960e01b81526001600160a01b03929092166004830152602482018790528160448183885af18015610d4057610d28575b5090829187933b15610d2457604051635c921eb960e01b81526001600160a01b039190911660048201526024810191909152828160448183865af19081156104f8578391610d0f575b5050602090608460405180948193635673b02d60e01b83528960048401528160248401528160448401528760648401525af180156105ab5760609550610cf2575b5060016000805160206117a18339815191525560405192835260208301526040820152f35b610d0a9060203d6020116104cd576104c081836111a3565b610ccd565b81610d19916111a3565b6104f4578138610c8c565b8380fd5b87610d379198929493986111a3565b95909138610c43565b6040513d8a823e3d90fd5b610d6591925060203d60201161053b5761052a81836111a3565b9038610c02565b9150506020813d602011610d9f575b81610d88602093836111a3565b81010312610d9b57518390610bd2610bc3565b8680fd5b3d9150610d7b565b6040513d89823e3d90fd5b610b879250610dcf9060203d60201161053b5761052a81836111a3565b91610b70565b503461011657806003193601126101165760206040517fa49807205ce4d355092ef5a8a18f56e8913cf4a201fbe287825b095693c217758152f35b5034610116576060366003190112610116576020610e40610e2f6110bc565b610e376110d2565b60443591611212565b604051908152f35b503461011657604036600319011261011657610e626110d2565b336001600160a01b03821603610e7e5761011290600435611676565b63334bd91960e11b8252600482fd5b503461011657604036600319011261011657610112600435610ead6110d2565b90610eba61010882611136565b6115cd565b503461011657608036600319011261011657610ed96110bc565b610ee16110d2565b90826044359260643592610ef36113c5565b6001600160a01b03811690610f4c906020908490610f12851515611157565b865460405163e6a4390560e01b81526001600160a01b03928316600482015292821660248401529193849290911690829081906044820190565b03915afa9081156104d457602093879387928794610fe2575b5090610f79849585610f8996943390611481565b33906001600160a01b0316611481565b604051631249c58b60e01b815292839160049183916001600160a01b03165af180156104d45760409450610fc5575b5082519182526020820152f35b610fdd9060203d6020116104cd576104c081836111a3565b610fb8565b610f899450611003610f7991889493943d8a1161053b5761052a81836111a3565b9450919091610f65565b5034610116576020366003190112610116576020610e40600435611136565b503461011657806003193601126101165760206040517fd8aa0f3194971a2a116679f7c2090f6939c8d4e01a2a8d7e41d55e5351469e638152f35b9050346104f45760203660031901126104f45760043563ffffffff60e01b81168091036105035760209250637965db0b60e01b81149081156110ab575b5015158152f35b6301ffc9a760e01b149050386110a4565b600435906001600160a01b038216820361057d57565b602435906001600160a01b038216820361057d57565b608090600319011261057d57600435906024356001600160a01b038116810361057d57906044356001600160a01b038116810361057d57906064356001600160a01b038116810361057d5790565b60005260008051602061178183398151915260205260016040600020015490565b1561115e57565b60405162461bcd60e51b815260206004820152601f60248201527f5a65726f2061646472657373657320617265206e6f7420616c6c6f7765642e006044820152606490fd5b90601f8019910116810190811067ffffffffffffffff8211176111c557604052565b634e487b7160e01b600052604160045260246000fd5b9081602091031261057d57516001600160a01b038116810361057d5790565b9081602091031261057d5751801515810361057d5790565b916001600160a01b0383168015158061137d575b61122f90611157565b6001600160a01b038316146113385760005460405163e6a4390560e01b81526001600160a01b03858116600483015293841660248201529260209184916044918391165afa801561130d576112bf93602093600092611319575b5060405163ca706bcf60e01b81526001600160a01b03909116600482015260248101929092529092839190829081906044820190565b03916001600160a01b03165afa90811561130d576000916112de575090565b90506020813d602011611305575b816112f9602093836111a3565b8101031261057d575190565b3d91506112ec565b6040513d6000823e3d90fd5b611331919250843d861161053b5761052a81836111a3565b9038611289565b60405162461bcd60e51b815260206004820152601960248201527f546f6b656e73206d75737420626520646966666572656e742e000000000000006044820152606490fd5b506001600160a01b0383161515611226565b818102929181159184041417156113a257565b634e487b7160e01b600052601160045260246000fd5b919082039182116113a257565b3360009081527f52fce5e8a5d0d9e8d1ea29f4525e512e9c27bf92cae50374d497f918ab48f382602052604090205460ff16156113fe57565b63e2517d3f60e01b600052336004527fd8aa0f3194971a2a116679f7c2090f6939c8d4e01a2a8d7e41d55e5351469e6360245260446000fd5b60008181526000805160206117818339815191526020908152604080832033845290915290205460ff16156114695750565b63e2517d3f60e01b6000523360045260245260446000fd5b6040516323b872dd60e01b60208083019182526001600160a01b03948516602484015294909316604482015260648082019590955293845292600091906114c96084826111a3565b519082855af11561130d576000513d61151257506001600160a01b0381163b155b6114f15750565b635274afe760e01b60009081526001600160a01b0391909116600452602490fd5b600114156114ea565b6001600160a01b03811660009081527fb7db2dd08fcb62d0c9e08c51941cae53c267786a0b75803fb7960902fc8ef97d602052604090205460ff166115c7576001600160a01b031660008181527fb7db2dd08fcb62d0c9e08c51941cae53c267786a0b75803fb7960902fc8ef97d60205260408120805460ff191660011790553391907f2f8788117e7eff1d82e926ec794901d17c78024a50270940304540a733656f0d8180a4600190565b50600090565b6000818152600080516020611781833981519152602090815260408083206001600160a01b038616845290915290205460ff1661166f576000818152600080516020611781833981519152602090815260408083206001600160a01b0395909516808452949091528120805460ff19166001179055339291907f2f8788117e7eff1d82e926ec794901d17c78024a50270940304540a733656f0d9080a4600190565b5050600090565b6000818152600080516020611781833981519152602090815260408083206001600160a01b038616845290915290205460ff161561166f576000818152600080516020611781833981519152602090815260408083206001600160a01b0395909516808452949091528120805460ff19169055339291907ff6391f5c32d9c69d2a47ea670b442974b53935d1edc7fd64eb21e047a839171b9080a4600190565b60026000805160206117a183398151915254146117415760026000805160206117a183398151915255565b633ee5aeb560e01b60005260046000fd5b60ff6000805160206117c18339815191525460401c161561176f57565b631afcd79f60e31b60005260046000fdfe02dd7bc7dec4dceedda775e58dd541e08a116c6c53815c0bd028192f7b6268009b779b17422d0df92223018b32b4d1fa46e071723d6817e2486d003becc55f00f0c57e16840df040f15088dc2f81fe391c3923bec73e23a9662efc9c229c6a00a26469706673582212205275c66290e946d980022e4d23056bc0f7e305dfccbb4903cf810afdf57e0a2a64736f6c634300081c0033",
  "linkReferences": {},
  "deployedLinkReferences": {}
}