{
  "_format": "hh-sol-artifact-1",
  "contractName": "FFactory",
  "sourceName": "contracts/FFactory.sol",
  "abi": [
    {
      "inputs": [],
      "stateMutability": "nonpayable",
      "type": "constructor"
    },
    {
      "inputs": [],
      "name": "AccessControlBadConfirmation",
      "type": "error"
    },
    {
      "inputs": [
        {
          "internalType": "address",
          "name": "account",
          "type": "address"
        },
        {
          "internalType": "bytes32",
          "name": "neededRole",
          "type": "bytes32"
        }
      ],
      "name": "AccessControlUnauthorizedAccount",
      "type": "error"
    },
    {
      "inputs": [],
      "name": "InvalidInitialization",
      "type": "error"
    },
    {
      "inputs": [],
      "name": "NotInitializing",
      "type": "error"
    },
    {
      "inputs": [],
      "name": "ReentrancyGuardReentrantCall",
      "type": "error"
    },
    {
      "anonymous": false,
      "inputs": [
        {
          "indexed": false,
          "internalType": "uint64",
          "name": "version",
          "type": "uint64"
        }
      ],
      "name": "Initialized",
      "type": "event"
    },
    {
      "anonymous": false,
      "inputs": [
        {
          "indexed": true,
          "internalType": "address",
          "name": "tokenA",
          "type": "address"
        },
        {
          "indexed": true,
          "internalType": "address",
          "name": "tokenB",
          "type": "address"
        },
        {
          "indexed": false,
          "internalType": "address",
          "name": "pair",
          "type": "address"
        },
        {
          "indexed": false,
          "internalType": "uint256",
          "name": "",
          "type": "uint256"
        }
      ],
      "name": "PairCreated",
      "type": "event"
    },
    {
      "anonymous": false,
      "inputs": [
        {
          "indexed": true,
          "internalType": "bytes32",
          "name": "role",
          "type": "bytes32"
        },
        {
          "indexed": true,
          "internalType": "bytes32",
          "name": "previousAdminRole",
          "type": "bytes32"
        },
        {
          "indexed": true,
          "internalType": "bytes32",
          "name": "newAdminRole",
          "type": "bytes32"
        }
      ],
      "name": "RoleAdminChanged",
      "type": "event"
    },
    {
      "anonymous": false,
      "inputs": [
        {
          "indexed": true,
          "internalType": "bytes32",
          "name": "role",
          "type": "bytes32"
        },
        {
          "indexed": true,
          "internalType": "address",
          "name": "account",
          "type": "address"
        },
        {
          "indexed": true,
          "internalType": "address",
          "name": "sender",
          "type": "address"
        }
      ],
      "name": "RoleGranted",
      "type": "event"
    },
    {
      "anonymous": false,
      "inputs": [
        {
          "indexed": true,
          "internalType": "bytes32",
          "name": "role",
          "type": "bytes32"
        },
        {
          "indexed": true,
          "internalType": "address",
          "name": "account",
          "type": "address"
        },
        {
          "indexed": true,
          "internalType": "address",
          "name": "sender",
          "type": "address"
        }
      ],
      "name": "RoleRevoked",
      "type": "event"
    },
    {
      "inputs": [],
      "name": "ADMIN_ROLE",
      "outputs": [
        {
          "internalType": "bytes32",
          "name": "",
          "type": "bytes32"
        }
      ],
      "stateMutability": "view",
      "type": "function"
    },
    {
      "inputs": [],
      "name": "CREATOR_ROLE",
      "outputs": [
        {
          "internalType": "bytes32",
          "name": "",
          "type": "bytes32"
        }
      ],
      "stateMutability": "view",
      "type": "function"
    },
    {
      "inputs": [],
      "name": "DEFAULT_ADMIN_ROLE",
      "outputs": [
        {
          "internalType": "bytes32",
          "name": "",
          "type": "bytes32"
        }
      ],
      "stateMutability": "view",
      "type": "function"
    },
    {
      "inputs": [],
      "name": "allPairsLength",
      "outputs": [
        {
          "internalType": "uint256",
          "name": "",
          "type": "uint256"
        }
      ],
      "stateMutability": "view",
      "type": "function"
    },
    {
      "inputs": [],
      "name": "buyTax",
      "outputs": [
        {
          "internalType": "uint256",
          "name": "",
          "type": "uint256"
        }
      ],
      "stateMutability": "view",
      "type": "function"
    },
    {
      "inputs": [
        {
          "internalType": "address",
          "name": "tokenA",
          "type": "address"
        },
        {
          "internalType": "address",
          "name": "tokenB",
          "type": "address"
        }
      ],
      "name": "createPair",
      "outputs": [
        {
          "internalType": "address",
          "name": "",
          "type": "address"
        }
      ],
      "stateMutability": "nonpayable",
      "type": "function"
    },
    {
      "inputs": [
        {
          "internalType": "address",
          "name": "tokenA",
          "type": "address"
        },
        {
          "internalType": "address",
          "name": "tokenB",
          "type": "address"
        }
      ],
      "name": "getPair",
      "outputs": [
        {
          "internalType": "address",
          "name": "",
          "type": "address"
        }
      ],
      "stateMutability": "view",
      "type": "function"
    },
    {
      "inputs": [
        {
          "internalType": "bytes32",
          "name": "role",
          "type": "bytes32"
        }
      ],
      "name": "getRoleAdmin",
      "outputs": [
        {
          "internalType": "bytes32",
          "name": "",
          "type": "bytes32"
        }
      ],
      "stateMutability": "view",
      "type": "function"
    },
    {
      "inputs": [
        {
          "internalType": "bytes32",
          "name": "role",
          "type": "bytes32"
        },
        {
          "internalType": "address",
          "name": "account",
          "type": "address"
        }
      ],
      "name": "grantRole",
      "outputs": [],
      "stateMutability": "nonpayable",
      "type": "function"
    },
    {
      "inputs": [
        {
          "internalType": "bytes32",
          "name": "role",
          "type": "bytes32"
        },
        {
          "internalType": "address",
          "name": "account",
          "type": "address"
        }
      ],
      "name": "hasRole",
      "outputs": [
        {
          "internalType": "bool",
          "name": "",
          "type": "bool"
        }
      ],
      "stateMutability": "view",
      "type": "function"
    },
    {
      "inputs": [
        {
          "internalType": "address",
          "name": "taxVault_",
          "type": "address"
        },
        {
          "internalType": "uint256",
          "name": "buyTax_",
          "type": "uint256"
        },
        {
          "internalType": "uint256",
          "name": "sellTax_",
          "type": "uint256"
        },
        {
          "internalType": "uint256",
          "name": "multiplier_",
          "type": "uint256"
        }
      ],
      "name": "initialize",
      "outputs": [],
      "stateMutability": "nonpayable",
      "type": "function"
    },
    {
      "inputs": [],
      "name": "multiplier",
      "outputs": [
        {
          "internalType": "uint256",
          "name": "",
          "type": "uint256"
        }
      ],
      "stateMutability": "view",
      "type": "function"
    },
    {
      "inputs": [
        {
          "internalType": "uint256",
          "name": "",
          "type": "uint256"
        }
      ],
      "name": "pairs",
      "outputs": [
        {
          "internalType": "address",
          "name": "",
          "type": "address"
        }
      ],
      "stateMutability": "view",
      "type": "function"
    },
    {
      "inputs": [
        {
          "internalType": "bytes32",
          "name": "role",
          "type": "bytes32"
        },
        {
          "internalType": "address",
          "name": "callerConfirmation",
          "type": "address"
        }
      ],
      "name": "renounceRole",
      "outputs": [],
      "stateMutability": "nonpayable",
      "type": "function"
    },
    {
      "inputs": [
        {
          "internalType": "bytes32",
          "name": "role",
          "type": "bytes32"
        },
        {
          "internalType": "address",
          "name": "account",
          "type": "address"
        }
      ],
      "name": "revokeRole",
      "outputs": [],
      "stateMutability": "nonpayable",
      "type": "function"
    },
    {
      "inputs": [],
      "name": "router",
      "outputs": [
        {
          "internalType": "address",
          "name": "",
          "type": "address"
        }
      ],
      "stateMutability": "view",
      "type": "function"
    },
    {
      "inputs": [],
      "name": "sellTax",
      "outputs": [
        {
          "internalType": "uint256",
          "name": "",
          "type": "uint256"
        }
      ],
      "stateMutability": "view",
      "type": "function"
    },
    {
      "inputs": [
        {
          "internalType": "address",
          "name": "router_",
          "type": "address"
        }
      ],
      "name": "setRouter",
      "outputs": [],
      "stateMutability": "nonpayable",
      "type": "function"
    },
    {
      "inputs": [
        {
          "internalType": "address",
          "name": "newVault_",
          "type": "address"
        },
        {
          "internalType": "uint256",
          "name": "buyTax_",
          "type": "uint256"
        },
        {
          "internalType": "uint256",
          "name": "sellTax_",
          "type": "uint256"
        }
      ],
      "name": "setTaxParams",
      "outputs": [],
      "stateMutability": "nonpayable",
      "type": "function"
    },
    {
      "inputs": [
        {
          "internalType": "bytes4",
          "name": "interfaceId",
          "type": "bytes4"
        }
      ],
      "name": "supportsInterface",
      "outputs": [
        {
          "internalType": "bool",
          "name": "",
          "type": "bool"
        }
      ],
      "stateMutability": "view",
      "type": "function"
    },
    {
      "inputs": [],
      "name": "taxVault",
      "outputs": [
        {
          "internalType": "address",
          "name": "",
          "type": "address"
        }
      ],
      "stateMutability": "view",
      "type": "function"
    }
  ],
  "bytecode": "0x6080806040523460d2577ff0c57e16840df040f15088dc2f81fe391c3923bec73e23a9662efc9c229c6a005460ff8160401c1660c1576002600160401b03196001600160401b03821601605c575b604051611b1590816100d88239f35b6001600160401b0319166001600160401b039081177ff0c57e16840df040f15088dc2f81fe391c3923bec73e23a9662efc9c229c6a005581527fc7f505b2f371ae2175ee4913f4499e1f2633a7b5936321eed1cdaeb6115181d290602090a13880604d565b63f92ee8a960e01b60005260046000fd5b600080fdfe608080604052600436101561001357600080fd5b60003560e01c90816301ffc9a71461092e575080631b3ed72214610910578063248a9ca3146108ea5780632f2ff15d146108b957806336568abe146108735780634ec81af1146106b35780634f7041a514610695578063574f2ba31461067757806375b238fc1461063c5780637acf6337146105c05780638aeda25a1461058557806391d148541461052b578063a217fddf1461050f578063b91ac788146104cd578063c0d786551461048a578063c9c6539614610205578063cc1776d3146101e7578063d547741f146101af578063e2ad37b014610186578063e6a43905146101345763f887ea401461010657600080fd5b3461012f57600036600319011261012f576002546040516001600160a01b039091168152602090f35b600080fd5b3461012f57604036600319011261012f5761014d610997565b610155610981565b6001600160a01b03918216600090815260208181526040808320938516835292815290829020549151919092168152f35b3461012f57600036600319011261012f576003546040516001600160a01b039091168152602090f35b3461012f57604036600319011261012f576101e56004356101ce610981565b906101e06101db826109de565b610b82565b610d27565b005b3461012f57600036600319011261012f576020600554604051908152f35b3461012f57604036600319011261012f5761021e610997565b610226610981565b3360009081527f7a5b68ff0f13768bc86eb4902144e89f1547a35d6d4bf0e23c2f18b32c5a92f1602052604090205490919060ff1615610451576002600080516020611aa08339815191525414610440576002600080516020611aa0833981519152556001600160a01b03169061029e821515610ac4565b6001600160a01b03166102b2811515610ac4565b6002546001600160a01b0316801561040f576006549060405191610c8a908184019084821067ffffffffffffffff8311176103ed576080938593610df68539825286602083015285604083015260608201520301906000f0801561040357600083815260208181526040808320858452825280832080546001600160a01b03199081166001600160a01b039690961695861790915583835281842087855290925290912080549091168217905560015492909190680100000000000000008410156103ed57610389846001602096016001556109ad565b81549060031b9085821b9160018060a01b03901b19161790557f0d3648bd0f6ba80134a33ba9275ac585d9d315f0ad8355cddefde31afa28d0e9604060015481519086825287820152a36001600080516020611aa083398151915255604051908152f35b634e487b7160e01b600052604160045260246000fd5b6040513d6000823e3d90fd5b60405162461bcd60e51b81526020600482015260096024820152682737903937baba32b960b91b6044820152606490fd5b633ee5aeb560e01b60005260046000fd5b63e2517d3f60e01b600052336004527f828634d95e775031b9ff576b159a8509d3053581a8c9c4d7d86899e0afcd882f60245260446000fd5b3461012f57602036600319011261012f576104a3610997565b6104ab610b10565b600280546001600160a01b0319166001600160a01b0392909216919091179055005b3461012f57602036600319011261012f5760043560015481101561012f576104f66020916109ad565b905460405160039290921b1c6001600160a01b03168152f35b3461012f57600036600319011261012f57602060405160008152f35b3461012f57604036600319011261012f57610544610981565b600435600052600080516020611a8083398151915260205260406000209060018060a01b0316600052602052602060ff604060002054166040519015158152f35b3461012f57600036600319011261012f5760206040517f828634d95e775031b9ff576b159a8509d3053581a8c9c4d7d86899e0afcd882f8152f35b3461012f57606036600319011261012f576105d9610997565b6105e1610b10565b6001600160a01b03166105f5811515610ac4565b610604606460045411156109ff565b61061360646005541115610a61565b6bffffffffffffffffffffffff60a01b6003541617600355602435600455604435600555600080f35b3461012f57600036600319011261012f5760206040517fa49807205ce4d355092ef5a8a18f56e8913cf4a201fbe287825b095693c217758152f35b3461012f57600036600319011261012f576020600154604051908152f35b3461012f57600036600319011261012f576020600454604051908152f35b3461012f57608036600319011261012f576106cc610997565b600080516020611ac0833981519152549060ff8260401c16159167ffffffffffffffff81168015908161086b575b6001149081610861575b159081610858575b506108475767ffffffffffffffff198116600117600080516020611ac0833981519152558261081a575b5061073f610dc7565b610747610dc7565b61074f610dc7565b6001600080516020611aa08339815191525561076a33610bcc565b5061077a606460045411156109ff565b61078960646005541115610a61565b60018060a01b03166bffffffffffffffffffffffff60a01b60035416176003556024356004556044356005556064356006556107c157005b68ff000000000000000019600080516020611ac08339815191525416600080516020611ac0833981519152557fc7f505b2f371ae2175ee4913f4499e1f2633a7b5936321eed1cdaeb6115181d2602060405160018152a1005b68ffffffffffffffffff19166801000000000000000117600080516020611ac08339815191525582610736565b63f92ee8a960e01b60005260046000fd5b9050158461070c565b303b159150610704565b8491506106fa565b3461012f57604036600319011261012f5761088c610981565b336001600160a01b038216036108a8576101e590600435610d27565b63334bd91960e11b60005260046000fd5b3461012f57604036600319011261012f576101e56004356108d8610981565b906108e56101db826109de565b610c7e565b3461012f57602036600319011261012f5760206109086004356109de565b604051908152f35b3461012f57600036600319011261012f576020600654604051908152f35b3461012f57602036600319011261012f576004359063ffffffff60e01b821680920361012f57602091637965db0b60e01b8114908115610970575b5015158152f35b6301ffc9a760e01b14905083610969565b602435906001600160a01b038216820361012f57565b600435906001600160a01b038216820361012f57565b6001548110156109c857600160005260206000200190600090565b634e487b7160e01b600052603260045260246000fd5b600052600080516020611a8083398151915260205260016040600020015490565b15610a0657565b60405162461bcd60e51b815260206004820152602d60248201527f42757920546178206d75737420626520612070657263656e746167652062657460448201526c07765656e203020746f2031303609c1b6064820152608490fd5b15610a6857565b60405162461bcd60e51b815260206004820152602e60248201527f53656c6c20546178206d75737420626520612070657263656e7461676520626560448201526d0747765656e203020746f203130360941b6064820152608490fd5b15610acb57565b60405162461bcd60e51b815260206004820152601f60248201527f5a65726f2061646472657373657320617265206e6f7420616c6c6f7765642e006044820152606490fd5b3360009081527fb16e88c42fd4e48df2dd6a2eabd6bc9aec654ec170056b470819f8892cc6431c602052604090205460ff1615610b4957565b63e2517d3f60e01b600052336004527fa49807205ce4d355092ef5a8a18f56e8913cf4a201fbe287825b095693c2177560245260446000fd5b6000818152600080516020611a808339815191526020908152604080832033845290915290205460ff1615610bb45750565b63e2517d3f60e01b6000523360045260245260446000fd5b6001600160a01b03811660009081527fb7db2dd08fcb62d0c9e08c51941cae53c267786a0b75803fb7960902fc8ef97d602052604090205460ff16610c78576001600160a01b031660008181527fb7db2dd08fcb62d0c9e08c51941cae53c267786a0b75803fb7960902fc8ef97d60205260408120805460ff191660011790553391907f2f8788117e7eff1d82e926ec794901d17c78024a50270940304540a733656f0d8180a4600190565b50600090565b6000818152600080516020611a80833981519152602090815260408083206001600160a01b038616845290915290205460ff16610d20576000818152600080516020611a80833981519152602090815260408083206001600160a01b0395909516808452949091528120805460ff19166001179055339291907f2f8788117e7eff1d82e926ec794901d17c78024a50270940304540a733656f0d9080a4600190565b5050600090565b6000818152600080516020611a80833981519152602090815260408083206001600160a01b038616845290915290205460ff1615610d20576000818152600080516020611a80833981519152602090815260408083206001600160a01b0395909516808452949091528120805460ff19169055339291907ff6391f5c32d9c69d2a47ea670b442974b53935d1edc7fd64eb21e047a839171b9080a4600190565b60ff600080516020611ac08339815191525460401c1615610de457565b631afcd79f60e31b60005260046000fdfe6080346100ed57601f610c8a38819003918201601f19168301916001600160401b038311848410176100f2578084926080946040528339810103126100ed5761004781610108565b9061005460208201610108565b90606061006360408301610108565b9101516001600055926001600160a01b03169161008183151561011c565b6001600160a01b03169061009682151561011c565b6001600160a01b0316916100ab83151561011c565b60018060a01b0319600154161760015560018060a01b0319600254161760025560018060a01b03196003541617600355600455604051610b2190816101698239f35b600080fd5b634e487b7160e01b600052604160045260246000fd5b51906001600160a01b03821682036100ed57565b1561012357565b60405162461bcd60e51b815260206004820152601f60248201527f5a65726f2061646472657373657320617265206e6f7420616c6c6f7765642e006044820152606490fdfe608080604052600436101561001357600080fd5b600090813560e01c9081630902f1ac14610776575080630fc63d101461074d5780631249c58b146105ae5780632ccb1b30146105525780635673b02d146104d85780635c52a5f2146103ad5780635c921eb91461034e5780635f64b55b146103255780637b47ec1a14610296578063b07925f114610275578063b69ef8a81461025a578063c66f245514610237578063ca706bcf146100e65763f887ea40146100bb57600080fd5b346100e357806003193601126100e3576001546040516001600160a01b039091168152602090f35b80fd5b50346100e35760403660031901126100e35761010061087c565b6024359081156101e65761011261099b565b90610127600454610121610a14565b90610972565b60025490916001600160a01b0390811691168103610190575061014b905b83610972565b91810180911161017c578015610168576020925060405191048152f35b634e487b7160e01b83526012600452602483fd5b634e487b7160e01b83526011600452602483fd5b6003546001600160a01b0316036101ab5761014b9091610145565b60405162461bcd60e51b815260206004820152601360248201527224b73b30b634b21034b7383aba103a37b5b2b760691b6044820152606490fd5b60405162461bcd60e51b815260206004820152602360248201527f416d6f756e7420696e206d7573742062652067726561746572207468616e207a60448201526265726f60e81b6064820152608490fd5b50346100e357806003193601126100e3576020610252610a14565b604051908152f35b50346100e357806003193601126100e357602061025261099b565b50346100e357806003193601126100e3576020610252600454610121610a14565b50346100e35760203660031901126100e3576102bd60018060a01b036001541633146108cf565b60025481906001600160a01b0316803b15610322578190602460405180948193630852cd8d60e31b835260043560048401525af1801561031757610307575b602060405160018152f35b8161031191610897565b386102fc565b6040513d84823e3d90fd5b50fd5b50346100e357806003193601126100e3576003546040516001600160a01b039091168152602090f35b50346100e35760403660031901126100e3576103aa61036b61087c565b61038060018060a01b036001541633146108cf565b6103946001600160a01b0382161515610926565b60035460243591906001600160a01b0316610a52565b80f35b50346100e35760603660031901126100e3576103c761087c565b6024356001600160a01b038116908190036104d4576103f160018060a01b036001541633146108cf565b6001600160a01b03821692610407841515610926565b610412821515610926565b60405163095ea7b360e01b60208083019182526001600160a01b03959095166024830152604480358184015282529093908290610450606487610897565b85519082865af181513d826104b8575b50501561047257602060405160018152f35b6104af936104aa916040519163095ea7b360e01b602084015260248301526044820152604481526104a4606482610897565b82610a90565b610a90565b388080806102fc565b9091506104cc5750813b15155b3880610460565b6001146104c5565b8280fd5b50346100e35760803660031901126100e3576104ff60018060a01b036001541633146108cf565b426005557f298c349c742327269dc8de6ad66687767310c948ea309df826f5bd103e19d20760806040516004358152602435602082015260443560408201526064356060820152a1602060405160018152f35b50346100e35760403660031901126100e3576103aa61056f61087c565b61058460018060a01b036001541633146108cf565b6105986001600160a01b0382161515610926565b60025460243591906001600160a01b0316610a52565b50346100e357806003193601126100e3576105d460018060a01b036001541633146108cf565b600554610717576002546040516370a0823160e01b81523060048201529190602090839060249082906001600160a01b03165afa91821561070a5781926106d2575b506003546040516370a0823160e01b815230600482015290602090829060249082906001600160a01b03165afa9182156106c6578092610690575b7fcc9c58b575eabd3f6a1ee653e91fcea3ff546867ffc3782a3bbca1f9b6dbb8df604085854260055582519182526020820152a1602060405160018152f35b9091506020823d6020116106be575b816106ac60209383610897565b810103126100e3575051816040610651565b3d915061069f565b604051903d90823e3d90fd5b9091506020813d602011610702575b816106ee60209383610897565b810103126106fe57519038610616565b5080fd5b3d91506106e1565b50604051903d90823e3d90fd5b60405162461bcd60e51b815260206004820152600e60248201526d105b1c9958591e481b5a5b9d195960921b6044820152606490fd5b50346100e357806003193601126100e3576002546040516001600160a01b039091168152602090f35b9050346106fe57816003193601126106fe576002546370a0823160e01b8252306004830152602090829060249082906001600160a01b03165afa90811561031757829161084a575b506003546040516370a0823160e01b815230600482015290602090829060249082906001600160a01b03165afa90811561083f578391610809575b6040838382519182526020820152f35b90506020813d602011610837575b8161082460209383610897565b810103126104d4576040925051386107f9565b3d9150610817565b6040513d85823e3d90fd5b90506020813d602011610874575b8161086560209383610897565b810103126106fe5751386107be565b3d9150610858565b600435906001600160a01b038216820361089257565b600080fd5b90601f8019910116810190811067ffffffffffffffff8211176108b957604052565b634e487b7160e01b600052604160045260246000fd5b156108d657565b60405162461bcd60e51b815260206004820152602260248201527f4f6e6c7920726f757465722063616e2063616c6c20746869732066756e63746960448201526137b760f11b6064820152608490fd5b1561092d57565b60405162461bcd60e51b815260206004820152601f60248201527f5a65726f2061646472657373657320617265206e6f7420616c6c6f7765642e006044820152606490fd5b8181029291811591840414171561098557565b634e487b7160e01b600052601160045260246000fd5b6002546040516370a0823160e01b815230600482015290602090829060249082906001600160a01b03165afa908115610a08576000916109d9575090565b90506020813d602011610a00575b816109f460209383610897565b81010312610892575190565b3d91506109e7565b6040513d6000823e3d90fd5b6003546040516370a0823160e01b815230600482015290602090829060249082906001600160a01b03165afa908115610a08576000916109d9575090565b60405163a9059cbb60e01b60208201526001600160a01b03929092166024830152604480830193909352918152610a8e916104aa606483610897565b565b906000602091828151910182855af115610a08576000513d610ae257506001600160a01b0381163b155b610ac15750565b635274afe760e01b60009081526001600160a01b0391909116600452602490fd5b60011415610aba56fea264697066735822122032bc6c3e56de187f1a77f22cab38f45f0280625a4e880b6942eaef716a67c50264736f6c634300081c003302dd7bc7dec4dceedda775e58dd541e08a116c6c53815c0bd028192f7b6268009b779b17422d0df92223018b32b4d1fa46e071723d6817e2486d003becc55f00f0c57e16840df040f15088dc2f81fe391c3923bec73e23a9662efc9c229c6a00a2646970667358221220bc4062e14d2f935ec9b0cc72ce7683bd8035e56d84f3acadbfdc7db40384e06d64736f6c634300081c0033",
  "linkReferences": {},
  "deployedLinkReferences": {}
}